:020000040800F2
:100000009805002005010008DF100008810E000897
:10001000DD10000871010008D51200080000000082
:10002000000000000000000000000000E3100008D5
:100030007301000800000000E1100008E51000084E
:100040001F0100081F0100081F0100081F01000810
:100050001F0100081F0100081F0100081F01000800
:100060001F0100081F0100081F0100081F010008F0
:100070001F0100081F0100081F0100081F010008E0
:100080001F0100081F0100081F0100081F010008D0
:100090001F0100081F0100081F0100081F010008C0
:1000A0001F0100081F0100081F0100081F010008B0
:1000B0001F0100081F0100081F0100081F010008A0
:1000C0001F0100081F0100081F0100081F01000890
:1000D0001F0100081F0100081F0100081F01000880
:1000E0001F0100081F0100081F010008DFF810D0E1
:1000F00000F02CF80048004715130008AFF300800B
:10010000980500200648804706480047FEE7FEE7BE
:10011000FEE7FEE7FEE7FEE7FEE7FEE7FEE7FEE7B7
:1001200047110008ED000008D2B201E000F8012BF1
:10013000491EFBD270470022F6E710B513460A4667
:1001400004461946FFF7F0FF204610BD064C074D48
:1001500006E0E06840F0010394E807009847103497
:10016000AC42F6D3FFF7C6FF501300087013000827
:10017000FEE7704772B6FEE72DE9F84FDFF8B89159
:10018000002409F1040A0AF1040B23460F270BF19E
:10019000040EC9E00125A5402A40AA427DD1674E40
:1001A000D1F804C0ACEB0608B44532D014DCBCF185
:1001B000030F3AD009DCBCF1000F2AD0BCF1010FCB
:1001C0001CD0BCF1020F31D11DE0BCF1110F17D0D2
:1001D000BCF1120F2AD119E0B8F5881F19D006DC3E
:1001E000B8F5803F15D0B8F5801F1FD111E0B8F5E4
:1001F000001F0ED0B8F5041F18D10AE0CB6815E037
:10020000CB681B1D12E0CB6808330FE0CB680C33C2
:100210000CE08B682BB1012B4FF0080303D0456134
:1002200004E0042302E0056100E00023FF2A01D876
:10023000064601E000F104064FEA840501D9A5F164
:100240002005D6F8008007FA05FC28EA0C0803FA16
:1002500005F548EA0508C6F800804D68ED0062D54E
:10026000374DAE6946F00106AE61AD6924F0030674
:1002700005F001050095334D06EB050CDCF8085040
:10028000A607360F07FA06F825EA0805DFF8B88052
:10029000404503D14FF0000817E044E0DFF8AC80A0
:1002A000404502D14FF001080FE0DFF8A48040453F
:1002B00002D14FF0020808E0DFF89880404502D1F3
:1002C0004FF0030801E04FF0040808FA06F848EA86
:1002D0000508CCF808804D68D9F80060ED034D465C
:1002E00001D5164300E096432E604D68DAF80060B1
:1002F000AD03554601D5164300E096432E604D6888
:10030000DBF80060ED025D4601D5164300E0964340
:100310002E604D68DEF80060AD02754601D51643CB
:1003200000E096432E60641C0D682A46E5407FF489
:1003300031AFBDE8F88F000000040140000011104B
:10034000001002400000014000080140000C014084
:1003500000100140001401400AB101617047090416
:10036000FBE70000014880687047000000000020A3
:1003700070B5040025D094F83D00002520B984F81C
:100380003C50204600F0B8F8242084F83D00206856
:10039000016821F0010101602068016841F4004119
:1003A00001602068016821F40041016000F010FA4A
:1003B0004D4A6168914201D84C4900E04C4988425D
:1003C00001D2012070BD4B492368B0FBF1F15E689A
:1003D00026F03F060E435E606368934206D94FF4F1
:1003E000967359434FF47A73B1FBF3F12368491CB8
:1003F0001E6A26F03F06314319626168914210D8A7
:100400004900401EB0FBF1F2521CC2F30B02042A59
:1004100001D2042022E0B0FBF1F0401CC0F30B003D
:100420001CE0A268F2B301EBC10303EB0116431E0B
:10043000B3FBF6F35B1C43F480431B0549D092B336
:1004400001EBC10202EB0111401EB0FBF1F0401CB8
:10045000C0F30B0040F4804040F400402168CA69BA
:100460004CF6FF739A431043C861D4E90710014367
:100470002068026822F0C00211430160D4E9030140
:1004800001432068826848F2FF339A431143816038
:10049000D4E9050108432168CA6822F0FF0210432D
:1004A000C86001E00EE016E02068016841F001013B
:1004B00001602564202084F83D00256384F83E50C7
:1004C000002070BD01EB4106431EB3FBF6F35B1C3D
:1004D000B3E70120C2E701EB4101401EB0FBF1F0A0
:1004E000401CC0F30B00B7E7A086010080841E000B
:1004F00000093D0040420F0030B585B00021009159
:100500000191029103911E4D03681E4C122103229A
:100510001D48AB4216D1A36943F00803A361A36948
:10052000039203F008030493C023CDE90031694628
:10053000FFF722FEE06940F40010E061E06900F49A
:10054000001019E0114DAB4217D1A36943F0080325
:10055000A361A369039203F0080304934FF440637B
:10056000CDE900316946FFF707FEE06940F48000FD
:10057000E061E06900F48000049005B030BD000047
:100580000054004000100240000C014000580040A0
:1005900002488168027811448160704700000020A1
:1005A000074810B5016841F010010160032000F018
:1005B00067F8002000F006F800F024F8002010BDD5
:1005C0000020024070B50D4D04464FF47A71287832
:1005D000B1FBF0F00A490968B1FBF0F000F070FBE4
:1005E00048B9102C07D200222146501E00F028F8EE
:1005F00000206C6070BD012070BD00000000002074
:100600000C0000200C4808B5816941F001018161AE
:10061000816901F001010091C16941F08051C1611E
:10062000C06900F0805000900448416821F0E0610A
:1006300041F08061416008BD0010024000000140AF
:10064000F0B40E4B1B680C46C3F30223C3F107053D
:10065000042D00D90425191D072901D2002300E02B
:10066000DB1E012606FA05F1491E214099409E40F5
:10067000761E16403143F0BC00F02DBE0CED00E0BC
:10068000064900F0070208684FF6FF03184040EAE9
:100690000220034A10430860704700000CED00E0A0
:1006A0000000FA052DE9F0470F46050061D0434EE2
:1006B000306800F00700B84209D2306820F0070027
:1006C00038433060306800F00700B84251D12868E4
:1006D0003B4C810712D5400703D5606840F4E060C9
:1006E00060602878000703D5606840F4605060605F
:1006F0006068A96820F0F000084360602878C007AF
:1007000028D06868012810D02168022810D08907F5
:1007100000292EDA616821F0030101436160FFF7CF
:1007200021FE804641F288390DE021688903EFE718
:100730008901EDE7FFF716FEA0EB0801494502D954
:100740000320BDE8F0876068696800F00C00B0EB3A
:10075000810FEFD1306800F00700B8420BD9306844
:1007600020F0070038433060306800F00700B842DE
:1007700001D00120E5E72878400705D56068E968E1
:1007800020F4E060084360602878000706D56068C0
:10079000296920F4605040EAC100606000F038F838
:1007A0006168084AC1F30311515CC84006490860FA
:1007B00006480068FFF706FF0020C2E7002002405D
:1007C00000100240361300080C0000200400002036
:1007D0000448054900684968044AC1F30221515C94
:1007E000C84070470C00002000100240461300086B
:1007F0000448054900684968044AC1F3C221515CB4
:10080000C84070470C00002000100240461300084A
:1008100012A185B00FC98DE80F0014A0144A00681A
:1008200004905168134801F00C03042B10D0082BDE
:100830000ED1C1F38343C9031DF803000AD55168E3
:1008400004AAC1F34041515C0A4A5043B0FBF1F0A5
:1008500005B0704708494843FAE700000203040561
:10086000060708090A0B0C0D0E0F101001020000FC
:100870000010024000127A0000093D002DE9F84FF7
:10088000040070D02078C04DC00749D06868C0F31C
:100890008100012807D06868C0F38100022809D1CF
:1008A0006868C00306D52868800339D560680028C9
:1008B000E7D035E06068B0F5803F0BD010B1B0F5FF
:1008C000A02F11D0286820F480302860286820F4F8
:1008D000802002E0286840F480302860606890B191
:1008E000FFF740FD06460AE0286840F480202860B3
:1008F000F0E700BFFFF736FD801B642873D8286837
:100900008003F7D50CE0FFF72DFD064605E000BF9C
:10091000FFF728FD801B6428F0D828688003F7D4EF
:1009200020789A4E80074FF001094FF0000839D522
:10093000686810F00C0F07D06868C0F381000228C7
:1009400009D16868C00306D42868800714D52069D7
:10095000012808D110E02069B0B1C6F80090FFF777
:1009600001FD074605E00AE1FFF7FCFCC01B022879
:10097000C4D828688007F7D52868616920F0F80096
:1009800040EAC10028600DE0C6F80080FFF7EAFCED
:10099000074604E0FFF7E6FCC01B022823D82868BE
:1009A0008007F7D4207800072CD57948A169D9B100
:1009B000C0F80090FFF7D6FC074604E0FFF7D2FC32
:1009C000C01B02280FD8686A8007F7D571484FF41A
:1009D000FA510068B0FBF1F0009000BF0098411E92
:1009E0000091FAD20EE080E0C0F80080FFF7BAFC78
:1009F000074604E0FFF7B6FCC01B022875D8686AFA
:100A00008007F7D42078400760D5E8690027C00048
:100A100008D4E86940F08050E861E869012700F0F7
:100A2000805000905C480168C90513D40168834672
:100A300041F480710160FFF795FC824606E000BF3B
:100A4000FFF790FCA0EB0A0064284ED8DBF800000A
:100A5000C005F5D5E06801280AD008B1052813D0F3
:100A6000286A20F001002862286A20F0040002E0D1
:100A7000286A40F001002862E06841F2883B98B1A2
:100A8000FFF770FC82460BE0286A40F00400286201
:100A9000EEE700BFFFF766FCA0EB0A0159455AD804
:100AA000286A8007F6D50CE0FFF75CFC824605E07B
:100AB000FFF758FCA0EB0A0159454CD8286A80077B
:100AC000F6D41FB1E86920F08050E861E06988B38E
:100AD0006968C1F38101022944D00228C6F8608008
:100AE00004D0FFF73FFC044638E034E0FFF73AFC5F
:100AF000074604E0FFF736FCC01B02282BD8286805
:100B00008001F7D4206AB0F5803F05D16868A168FC
:100B100020F4003008436860D4E90801084369689C
:100B200021F4741108436860C6F86090FFF71AFC5E
:100B3000044606E025E000BFFFF714FC001B022876
:100B400009D828688001F7D51BE000BFFFF70AFC31
:100B5000001B022802D90320BDE8F88F2868800115
:100B6000F4D40EE00128F7D06868226A00F48031DE
:100B7000914204D1616A00F47010884201D00120D2
:100B8000EAE70020E8E700000010024000004242CF
:100B9000800442420C0000200070004070B5040048
:100BA00009D0606A002540B125616561A56294F8AD
:100BB000510040B10CE0012070BD6068B0F5827F4B
:100BC000F4D0E561F2E784F85050204600F040F898
:100BD000022084F851002068016821F04001016082
:100BE000A088218900F4827001F404410843A1899E
:100BF00001F400610843217C01F002010843217DDA
:100C000001F001010843218B01F400710843217FA9
:100C100001F03801084394F8201001F080010843E6
:100C2000218D01F40051084321680860A069042166
:100C300001EA1040216848602068C16921F4006120
:100C4000C1616565012084F85100002070BD00007D
:100C500030B585B000240094019402940394006898
:100C60001449884223D11448816941F4805181613B
:100C7000816901F480510491816941F0040181612D
:100C800080690E4D00F004000490B0200090022016
:100C900001900320039069462846FFF76DFA402033
:100CA000CDE90004694628460294FFF765FA05B0CD
:100CB00030BD00000030014000100240000801403B
:100CC00010B5401EB0F1807F01D3012010BD4FF060
:100CD000E02460610F21601700F0FDFA0020A061A0
:100CE00007202061002010BD70B5040004D094F8E6
:100CF0003900002510B106E0012070BD84F838509D
:100D0000204600F023F8242084F839002068C168C8
:100D100021F40051C160204600F016FA20680169F4
:100D200021F4904101612068416921F02A0141616B
:100D30002068C16841F40051C160E563202084F857
:100D4000390084F83A00002070BD000030B585B04D
:100D5000002400940194029403940068144988428A
:100D600023D11448C16941F40031C161C16901F462
:100D700000310491816941F00401816180690E4D67
:100D800000F0040004900420009002200190032051
:100D9000039069462846FFF7EFF90820CDE90004E3
:100DA000694628460294FFF7E7F905B030BD000018
:100DB00000440040001002400008014070B50400EB
:100DC00004D094F83D00002510B106E0012070BD6C
:100DD00084F83C50204600F01BF8022084F83D00C7
:100DE000204600F00DFA2068016921F4804101617C
:100DF0002068416921F02A0141612068C16841F4FD
:100E00000051C1602564012084F83D00002070BDC0
:100E100030B585B0002400940194029403940068D6
:100E20001449884224D11448816941F48041816188
:100E3000816901F480410491816941F0040181617B
:100E400080690E4D00F0040004904FF44070009053
:100E5000022001900320039069462846FFF78CF991
:100E60002815CDE90004694628460294FFF784F965
:100E700005B030BD003801400010024000080140BC
:100E8000FEE700002DE9F04F85B000243F480094B4
:100E9000019402940394816941F010018161816998
:100EA00001F010010491816941F0200181618169A3
:100EB00001F020010491816941F00401816181699F
:100EC00001F004010491816941F0080181618069A8
:100ED000DFF8BCA000F008004FF440460490002268
:100EE00031465046FFF738FADFF8A8B041F2030860
:100EF000002241465846FFF72FFA4FF4734900226B
:100F000049462548FFF728FA244D4FF40050CDE913
:100F10000005694602945046FFF72EF90096022715
:100F200001260397CDE9016469465046FFF724F98D
:100F3000CDF800800397CDE9016469465846FFF774
:100F40001BF9CDF800900397CDE90164694612487A
:100F5000FFF712F94FF40840CDE900056946029405
:100F60005846FFF709F91820CDE9000569460294B3
:100F70000948FFF701F92020CDE900046946064839
:100F80000294FFF7F9F805B0BDE8F08F00100240B9
:100F90000010014000080140000C01400000111049
:100FA0000D4810B50B4901600C49416000214FF418
:100FB00080428160C0E9031241618161C1610162C7
:100FC000FFF7D6F9002803D0BDE81040FFF7D2B8EC
:100FD00010BD00000054004010000020A086010059
:100FE0000D4810B50B4901600C49416000214FF4D8
:100FF00080428160C0E9031241618161C161016287
:10100000FFF7B6F9002803D0BDE81040FFF7B2B8EB
:1010100010BD00000058004064000020A0860100C0
:10102000104810B50E4901604FF4827141600021F3
:101030008160C1604FF480220161C0E9051208227D
:10104000C0E90721416281620A21C162FFF7A6FD62
:10105000002803D0BDE81040FFF78CB810BD000099
:1010600000300140B80000200D4810B50B49016068
:101070004FF4E1314160002181600C22C160C0E980
:1010800004128161C1610162FFF798FE002803D05C
:10109000BDE81040FFF76EB810BD000000380140F9
:1010A000100100200C4810B50A4901604FF4E131ED
:1010B0004160002181600C22C160C0E9041281619D
:1010C000C161FFF711FE002803D0BDE81040FFF713
:1010D00051B810BD0044004054010020FEE7FEE777
:1010E00070477047FFF754BA30B58FB02821684673
:1010F000FFF721F814210AA8FFF71DF801210804C1
:10110000CDE900100024029402250491CDE9075096
:101110004FF4E01009906846FFF7B0FB08B172B6D3
:10112000FEE70F20CDE90A054FF48060CDE90C40C1
:1011300002210AA80E94FFF7B5FA002801D072B672
:10114000FEE70FB030BD704770B504460068016916
:10115000E26821F44051114301612169A06808430C
:10116000616908432168CA6841F20C639A430243EB
:10117000CA6020684169A26921F44071114341614C
:101180001E492068884202D1FFF732FB01E0FFF7D9
:101190001FFB00EBC00101EB0012606864218000BE
:1011A000B2FBF0F3B3FBF1F36FF018067343B2FB3D
:1011B000F0F5B2FBF0F605EB8305322303EB0515E2
:1011C000B5FBF1F5B6FBF1F605F0F00505EB0615FC
:1011D000B2FBF0F6B2FBF0F0B0FBF1F06FF01802EA
:1011E000504306EB800003EB0010B0FBF1F02168E8
:1011F00000F00F002844886070BD000000380140F6
:101200002DE9F04104460068C16821F00C01C1607D
:1012100020680169D4E906231A43E568236A21F4AA
:101220007C512B431A430A4342F400610161226856
:10123000D16841F20C6081432369A0681843636957
:101240000B431843D0602068416921F4407141612B
:101250001F49206864253226884202D1FFF7C8FA68
:1012600001E0FFF7B5FA00EBC00101EB0011606887
:101270006FF0180C8000B1FBF0F3B3FBF5F3B1FB9A
:10128000F0F7B1FBF0F203FB0CF307EB830306EB83
:101290000313B2FBF5F2B3FBF5F3120103F0F00315
:1012A00002EB4302B1FBF0F3B1FBF0F0B0FBF5F061
:1012B00000FB0CF003EB800006EB0010B0FBF5F038
:1012C000216800F00F0010448860BDE8F081000044
:1012D00000380140FEE70907090E002804DB00F191
:1012E000E02080F80014704700F00F0000F1E020CB
:1012F00080F8141D704702E008C8121F08C1002AB8
:10130000FAD170477047002001E001C1121F002A86
:10131000FBD17047FFF744F9FFF7E6FEFFF7B2FD98
:10132000FFF73EFEFFF75CFEFFF77AFEFFF79CFE3D
:10133000FFF7B8FEFEE70000000000000000010219
:10134000030406070809000000000102030400006E
:10135000701300080000002010000000F6120008C2
:101360008013000810000020880500000613000804
:101370000100000010000000000000000024F40044
:04000005080000ED02
:00000001FF
